{
  "_format": "hh-sol-artifact-1",
  "contractName": "BatchTransferReward",
  "sourceName": "contracts/BatchTransferReward.sol",
  "abi": [
    {
      "inputs": [
        {
          "internalType": "contract IERC20",
          "name": "_rewardToken",
          "type": "address"
        }
      ],
      "stateMutability": "nonpayable",
      "type": "constructor"
    },
    {
      "anonymous": false,
      "inputs": [
        {
          "indexed": true,
          "internalType": "address",
          "name": "user",
          "type": "address"
        },
        {
          "indexed": false,
          "internalType": "uint256",
          "name": "amount",
          "type": "uint256"
        }
      ],
      "name": "EmergencyWithdraw",
      "type": "event"
    },
    {
      "anonymous": false,
      "inputs": [
        {
          "indexed": true,
          "internalType": "address",
          "name": "previousOwner",
          "type": "address"
        },
        {
          "indexed": true,
          "internalType": "address",
          "name": "newOwner",
          "type": "address"
        }
      ],
      "name": "OwnershipTransferred",
      "type": "event"
    },
    {
      "inputs": [
        {
          "internalType": "address[]",
          "name": "users",
          "type": "address[]"
        },
        {
          "internalType": "uint256[]",
          "name": "amounts",
          "type": "uint256[]"
        }
      ],
      "name": "batchTransferReward",
      "outputs": [],
      "stateMutability": "nonpayable",
      "type": "function"
    },
    {
      "inputs": [
        {
          "internalType": "uint256",
          "name": "_amount",
          "type": "uint256"
        }
      ],
      "name": "emergencyWithdraw",
      "outputs": [],
      "stateMutability": "nonpayable",
      "type": "function"
    },
    {
      "inputs": [],
      "name": "getRewardBalance",
      "outputs": [
        {
          "internalType": "uint256",
          "name": "",
          "type": "uint256"
        }
      ],
      "stateMutability": "view",
      "type": "function"
    },
    {
      "inputs": [],
      "name": "owner",
      "outputs": [
        {
          "internalType": "address",
          "name": "",
          "type": "address"
        }
      ],
      "stateMutability": "view",
      "type": "function"
    },
    {
      "inputs": [],
      "name": "renounceOwnership",
      "outputs": [],
      "stateMutability": "nonpayable",
      "type": "function"
    },
    {
      "inputs": [],
      "name": "rewardToken",
      "outputs": [
        {
          "internalType": "contract IERC20",
          "name": "",
          "type": "address"
        }
      ],
      "stateMutability": "view",
      "type": "function"
    },
    {
      "inputs": [
        {
          "internalType": "contract IERC20",
          "name": "_rewardToken",
          "type": "address"
        }
      ],
      "name": "setRewardToken",
      "outputs": [],
      "stateMutability": "nonpayable",
      "type": "function"
    },
    {
      "inputs": [
        {
          "internalType": "address",
          "name": "newOwner",
          "type": "address"
        }
      ],
      "name": "transferOwnership",
      "outputs": [],
      "stateMutability": "nonpayable",
      "type": "function"
    }
  ],
  "bytecode": "0x608060405234801561001057600080fd5b50604051610c94380380610c9483398101604081905261002f91610121565b610038336100d1565b6001600160a01b0381166100ac5760405162461bcd60e51b815260206004820152603160248201527f42617463685472616e736665725265776172643a205245574152445f544f4b456044820152704e5f49535f5a45524f5f4144445245535360781b606482015260840160405180910390fd5b600180546001600160a01b0319166001600160a01b0392909216919091179055610151565b600080546001600160a01b038381166001600160a01b0319831681178455604051919092169283917f8be0079c531659141344cd1fd0a4f28419497f9722a3daafe3b4186f6b6457e09190a35050565b60006020828403121561013357600080fd5b81516001600160a01b038116811461014a57600080fd5b9392505050565b610b34806101606000396000f3fe608060405234801561001057600080fd5b50600436106100885760003560e01c80638da5cb5b1161005b5780638da5cb5b146100d8578063cb78ed0a146100fd578063f2fde38b14610110578063f7c618c11461012357600080fd5b80635312ea8e1461008d5780635e42b455146100a2578063715018a6146100bd5780638aee8127146100c5575b600080fd5b6100a061009b366004610829565b610136565b005b6100aa61018d565b6040519081526020015b60405180910390f35b6100a0610218565b6100a06100d3366004610857565b61022c565b6000546001600160a01b03165b6040516001600160a01b0390911681526020016100b4565b6100a061010b366004610951565b6102e4565b6100a061011e366004610857565b6103d3565b6001546100e5906001600160a01b031681565b61013e610463565b600154610155906001600160a01b031633836104bd565b60405181815233907f5fafa99d0643513820be26656b45130b01e1c03062e1266bf36f88cbd3bd96959060200160405180910390a250565b6001546040517f70a082310000000000000000000000000000000000000000000000000000000081523060048201526000916001600160a01b0316906370a0823190602401602060405180830381865afa1580156101ef573d6000803e3d6000fd5b505050506040513d601f19601f820116820180604052508101906102139190610a13565b905090565b610220610463565b61022a600061053d565b565b610234610463565b6001600160a01b0381166102b55760405162461bcd60e51b815260206004820152602160248201527f42617463685472616e736665725265776172643a205a45524f5f41444452455360448201527f530000000000000000000000000000000000000000000000000000000000000060648201526084015b60405180910390fd5b6001805473ffffffffffffffffffffffffffffffffffffffff19166001600160a01b0392909216919091179055565b6102ec610463565b80518251146103635760405162461bcd60e51b815260206004820152602560248201527f42617463685472616e736665725265776172643a204c454e4754485f4e4f545f60448201527f4d4154434800000000000000000000000000000000000000000000000000000060648201526084016102ac565b60005b82518110156103ce576103bc83828151811061038457610384610a2c565b602002602001015183838151811061039e5761039e610a2c565b60209081029190910101516001546001600160a01b031691906104bd565b806103c681610a42565b915050610366565b505050565b6103db610463565b6001600160a01b0381166104575760405162461bcd60e51b815260206004820152602660248201527f4f776e61626c653a206e6577206f776e657220697320746865207a65726f206160448201527f646472657373000000000000000000000000000000000000000000000000000060648201526084016102ac565b6104608161053d565b50565b6000546001600160a01b0316331461022a5760405162461bcd60e51b815260206004820181905260248201527f4f776e61626c653a2063616c6c6572206973206e6f7420746865206f776e657260448201526064016102ac565b604080516001600160a01b038416602482015260448082018490528251808303909101815260649091019091526020810180517bffffffffffffffffffffffffffffffffffffffffffffffffffffffff167fa9059cbb000000000000000000000000000000000000000000000000000000001790526103ce90849061059a565b600080546001600160a01b0383811673ffffffffffffffffffffffffffffffffffffffff19831681178455604051919092169283917f8be0079c531659141344cd1fd0a4f28419497f9722a3daafe3b4186f6b6457e09190a35050565b60006105ef826040518060400160405280602081526020017f5361666545524332303a206c6f772d6c6576656c2063616c6c206661696c6564815250856001600160a01b03166106829092919063ffffffff16565b90508051600014806106105750808060200190518101906106109190610a69565b6103ce5760405162461bcd60e51b815260206004820152602a60248201527f5361666545524332303a204552433230206f7065726174696f6e20646964206e60448201527f6f7420737563636565640000000000000000000000000000000000000000000060648201526084016102ac565b60606106918484600085610699565b949350505050565b6060824710156107115760405162461bcd60e51b815260206004820152602660248201527f416464726573733a20696e73756666696369656e742062616c616e636520666f60448201527f722063616c6c000000000000000000000000000000000000000000000000000060648201526084016102ac565b600080866001600160a01b0316858760405161072d9190610aaf565b60006040518083038185875af1925050503d806000811461076a576040519150601f19603f3d011682016040523d82523d6000602084013e61076f565b606091505b50915091506107808783838761078b565b979650505050505050565b606083156107fa5782516000036107f3576001600160a01b0385163b6107f35760405162461bcd60e51b815260206004820152601d60248201527f416464726573733a2063616c6c20746f206e6f6e2d636f6e747261637400000060448201526064016102ac565b5081610691565b610691838381511561080f5781518083602001fd5b8060405162461bcd60e51b81526004016102ac9190610acb565b60006020828403121561083b57600080fd5b5035919050565b6001600160a01b038116811461046057600080fd5b60006020828403121561086957600080fd5b813561087481610842565b9392505050565b634e487b7160e01b600052604160045260246000fd5b604051601f8201601f1916810167ffffffffffffffff811182821017156108ba576108ba61087b565b604052919050565b600067ffffffffffffffff8211156108dc576108dc61087b565b5060051b60200190565b600082601f8301126108f757600080fd5b8135602061090c610907836108c2565b610891565b82815260059290921b8401810191818101908684111561092b57600080fd5b8286015b84811015610946578035835291830191830161092f565b509695505050505050565b6000806040838503121561096457600080fd5b823567ffffffffffffffff8082111561097c57600080fd5b818501915085601f83011261099057600080fd5b813560206109a0610907836108c2565b82815260059290921b840181019181810190898411156109bf57600080fd5b948201945b838610156109e65785356109d781610842565b825294820194908201906109c4565b965050860135925050808211156109fc57600080fd5b50610a09858286016108e6565b9150509250929050565b600060208284031215610a2557600080fd5b5051919050565b634e487b7160e01b600052603260045260246000fd5b600060018201610a6257634e487b7160e01b600052601160045260246000fd5b5060010190565b600060208284031215610a7b57600080fd5b8151801515811461087457600080fd5b60005b83811015610aa6578181015183820152602001610a8e565b50506000910152565b60008251610ac1818460208701610a8b565b9190910192915050565b6020815260008251806020840152610aea816040850160208701610a8b565b601f01601f1916919091016040019291505056fea2646970667358221220c62c74d9edd60c01f0d4eba18be9ffa15af3163691e13ca876f0d860931d358664736f6c63430008110033",
  "linkReferences": {},
  "deployedLinkReferences": {}
}