{
  "_format": "hh-sol-artifact-1",
  "contractName": "BatchTransferReward",
  "sourceName": "contracts/BatchTransferReward.sol",
  "abi": [
    {
      "anonymous": false,
      "inputs": [
        {
          "indexed": true,
          "internalType": "address",
          "name": "previousOwner",
          "type": "address"
        },
        {
          "indexed": true,
          "internalType": "address",
          "name": "newOwner",
          "type": "address"
        }
      ],
      "name": "OwnershipTransferred",
      "type": "event"
    },
    {
      "inputs": [
        {
          "internalType": "address[]",
          "name": "users",
          "type": "address[]"
        },
        {
          "internalType": "contract IERC20",
          "name": "rewardToken",
          "type": "address"
        },
        {
          "internalType": "uint256[]",
          "name": "amounts",
          "type": "uint256[]"
        }
      ],
      "name": "batchTransferReward",
      "outputs": [],
      "stateMutability": "nonpayable",
      "type": "function"
    },
    {
      "inputs": [
        {
          "internalType": "contract IERC20",
          "name": "rewardToken",
          "type": "address"
        }
      ],
      "name": "emergencyWithdraw",
      "outputs": [],
      "stateMutability": "nonpayable",
      "type": "function"
    },
    {
      "inputs": [
        {
          "internalType": "contract IERC20",
          "name": "rewardToken",
          "type": "address"
        }
      ],
      "name": "getRewardBalance",
      "outputs": [
        {
          "internalType": "uint256",
          "name": "",
          "type": "uint256"
        }
      ],
      "stateMutability": "view",
      "type": "function"
    },
    {
      "inputs": [],
      "name": "owner",
      "outputs": [
        {
          "internalType": "address",
          "name": "",
          "type": "address"
        }
      ],
      "stateMutability": "view",
      "type": "function"
    },
    {
      "inputs": [],
      "name": "renounceOwnership",
      "outputs": [],
      "stateMutability": "nonpayable",
      "type": "function"
    },
    {
      "inputs": [
        {
          "internalType": "address",
          "name": "newOwner",
          "type": "address"
        }
      ],
      "name": "transferOwnership",
      "outputs": [],
      "stateMutability": "nonpayable",
      "type": "function"
    },
    {
      "stateMutability": "payable",
      "type": "receive"
    }
  ],
  "bytecode": "0x608060405234801561001057600080fd5b5061001a3361001f565b61006f565b600080546001600160a01b038381166001600160a01b0319831681178455604051919092169283917f8be0079c531659141344cd1fd0a4f28419497f9722a3daafe3b4186f6b6457e09190a35050565b610d538061007e6000396000f3fe6080604052600436106100695760003560e01c8063d5a849e911610043578063d5a849e9146100d9578063d88b83e614610107578063f2fde38b1461012757600080fd5b80636ff1c9bc14610075578063715018a6146100975780638da5cb5b146100ac57600080fd5b3661007057005b600080fd5b34801561008157600080fd5b50610095610090366004610a63565b610147565b005b3480156100a357600080fd5b506100956102aa565b3480156100b857600080fd5b506000546040516001600160a01b0390911681526020015b60405180910390f35b3480156100e557600080fd5b506100f96100f4366004610a63565b6102be565b6040519081526020016100d0565b34801561011357600080fd5b50610095610122366004610b5d565b61034c565b34801561013357600080fd5b50610095610142366004610a63565b6105e5565b61014f610672565b6000196001600160a01b0382160161022857604051600090339047908381818185875af1925050503d80600081146101a3576040519150601f19603f3d011682016040523d82523d6000602084013e6101a8565b606091505b50509050806102245760405162461bcd60e51b815260206004820152602e60248201527f42617463685472616e736665725265776172643a204d41494e5f434f494e5f5460448201527f52414e534645525f4641494c454400000000000000000000000000000000000060648201526084015b60405180910390fd5b5050565b6040516370a0823160e01b81523060048201526102a79033906001600160a01b038416906370a0823190602401602060405180830381865afa158015610272573d6000803e3d6000fd5b505050506040513d601f19601f820116820180604052508101906102969190610c32565b6001600160a01b03841691906106cc565b50565b6102b2610672565b6102bc600061074c565b565b60006000196001600160a01b038316016102d9575047919050565b6040516370a0823160e01b81523060048201526001600160a01b038316906370a0823190602401602060405180830381865afa15801561031d573d6000803e3d6000fd5b505050506040513d601f19601f820116820180604052508101906103419190610c32565b92915050565b919050565b610354610672565b80518351146103cb5760405162461bcd60e51b815260206004820152602560248201527f42617463685472616e736665725265776172643a204c454e4754485f4e4f545f60448201527f4d41544348000000000000000000000000000000000000000000000000000000606482015260840161021b565b6000196001600160a01b0383160161057257600047116104525760405162461bcd60e51b8152602060048201526024808201527f42617463685472616e736665725265776172643a2042414c414e43455f49535f60448201527f5a45524f00000000000000000000000000000000000000000000000000000000606482015260840161021b565b60005b835181101561056c57600084828151811061047257610472610c4b565b60200260200101516001600160a01b031683838151811061049557610495610c4b565b602002602001015160405160006040518083038185875af1925050503d80600081146104dd576040519150601f19603f3d011682016040523d82523d6000602084013e6104e2565b606091505b50509050806105595760405162461bcd60e51b815260206004820152602e60248201527f42617463685472616e736665725265776172643a204d41494e5f434f494e5f5460448201527f52414e534645525f4641494c4544000000000000000000000000000000000000606482015260840161021b565b508061056481610c61565b915050610455565b50505050565b60005b835181101561056c576105ce84828151811061059357610593610c4b565b60200260200101518383815181106105ad576105ad610c4b565b6020026020010151856001600160a01b03166106cc9092919063ffffffff16565b806105d881610c61565b915050610575565b505050565b6105ed610672565b6001600160a01b0381166106695760405162461bcd60e51b815260206004820152602660248201527f4f776e61626c653a206e6577206f776e657220697320746865207a65726f206160448201527f6464726573730000000000000000000000000000000000000000000000000000606482015260840161021b565b6102a78161074c565b6000546001600160a01b031633146102bc5760405162461bcd60e51b815260206004820181905260248201527f4f776e61626c653a2063616c6c6572206973206e6f7420746865206f776e6572604482015260640161021b565b604080516001600160a01b038416602482015260448082018490528251808303909101815260649091019091526020810180517bffffffffffffffffffffffffffffffffffffffffffffffffffffffff167fa9059cbb000000000000000000000000000000000000000000000000000000001790526105e09084906107b4565b600080546001600160a01b038381167fffffffffffffffffffffffff0000000000000000000000000000000000000000831681178455604051919092169283917f8be0079c531659141344cd1fd0a4f28419497f9722a3daafe3b4186f6b6457e09190a35050565b6000610809826040518060400160405280602081526020017f5361666545524332303a206c6f772d6c6576656c2063616c6c206661696c6564815250856001600160a01b031661089c9092919063ffffffff16565b905080516000148061082a57508080602001905181019061082a9190610c88565b6105e05760405162461bcd60e51b815260206004820152602a60248201527f5361666545524332303a204552433230206f7065726174696f6e20646964206e60448201527f6f74207375636365656400000000000000000000000000000000000000000000606482015260840161021b565b60606108ab84846000856108b3565b949350505050565b60608247101561092b5760405162461bcd60e51b815260206004820152602660248201527f416464726573733a20696e73756666696369656e742062616c616e636520666f60448201527f722063616c6c0000000000000000000000000000000000000000000000000000606482015260840161021b565b600080866001600160a01b031685876040516109479190610cce565b60006040518083038185875af1925050503d8060008114610984576040519150601f19603f3d011682016040523d82523d6000602084013e610989565b606091505b509150915061099a878383876109a5565b979650505050505050565b60608315610a14578251600003610a0d576001600160a01b0385163b610a0d5760405162461bcd60e51b815260206004820152601d60248201527f416464726573733a2063616c6c20746f206e6f6e2d636f6e7472616374000000604482015260640161021b565b50816108ab565b6108ab8383815115610a295781518083602001fd5b8060405162461bcd60e51b815260040161021b9190610cea565b6001600160a01b03811681146102a757600080fd5b803561034781610a43565b600060208284031215610a7557600080fd5b8135610a8081610a43565b9392505050565b634e487b7160e01b600052604160045260246000fd5b604051601f8201601f1916810167ffffffffffffffff81118282101715610ac657610ac6610a87565b604052919050565b600067ffffffffffffffff821115610ae857610ae8610a87565b5060051b60200190565b600082601f830112610b0357600080fd5b81356020610b18610b1383610ace565b610a9d565b82815260059290921b84018101918181019086841115610b3757600080fd5b8286015b84811015610b525780358352918301918301610b3b565b509695505050505050565b600080600060608486031215610b7257600080fd5b833567ffffffffffffffff80821115610b8a57600080fd5b818601915086601f830112610b9e57600080fd5b81356020610bae610b1383610ace565b82815260059290921b8401810191818101908a841115610bcd57600080fd5b948201945b83861015610bf4578535610be581610a43565b82529482019490820190610bd2565b9750610c039050888201610a58565b955050506040860135915080821115610c1b57600080fd5b50610c2886828701610af2565b9150509250925092565b600060208284031215610c4457600080fd5b5051919050565b634e487b7160e01b600052603260045260246000fd5b600060018201610c8157634e487b7160e01b600052601160045260246000fd5b5060010190565b600060208284031215610c9a57600080fd5b81518015158114610a8057600080fd5b60005b83811015610cc5578181015183820152602001610cad565b50506000910152565b60008251610ce0818460208701610caa565b9190910192915050565b6020815260008251806020840152610d09816040850160208701610caa565b601f01601f1916919091016040019291505056fea264697066735822122060e307b614a46091f0fb1c751c88845ae2d5968a3674da579be7235915fd91bd64736f6c63430008110033",
  "linkReferences": {},
  "deployedLinkReferences": {}
}