{
  "_format": "hh-sol-artifact-1",
  "contractName": "RewardDistributor",
  "sourceName": "contracts/RewardDistributor.sol",
  "abi": [
    {
      "inputs": [
        {
          "internalType": "contract IERC20",
          "name": "_rewardToken",
          "type": "address"
        }
      ],
      "stateMutability": "nonpayable",
      "type": "constructor"
    },
    {
      "anonymous": false,
      "inputs": [
        {
          "indexed": true,
          "internalType": "address",
          "name": "user",
          "type": "address"
        },
        {
          "indexed": true,
          "internalType": "uint256",
          "name": "amount",
          "type": "uint256"
        }
      ],
      "name": "ClaimReward",
      "type": "event"
    },
    {
      "anonymous": false,
      "inputs": [
        {
          "indexed": true,
          "internalType": "address",
          "name": "user",
          "type": "address"
        },
        {
          "indexed": true,
          "internalType": "uint256",
          "name": "amount",
          "type": "uint256"
        }
      ],
      "name": "DepositReward",
      "type": "event"
    },
    {
      "anonymous": false,
      "inputs": [
        {
          "indexed": true,
          "internalType": "address",
          "name": "previousOwner",
          "type": "address"
        },
        {
          "indexed": true,
          "internalType": "address",
          "name": "newOwner",
          "type": "address"
        }
      ],
      "name": "OwnershipTransferred",
      "type": "event"
    },
    {
      "anonymous": false,
      "inputs": [
        {
          "indexed": true,
          "internalType": "address",
          "name": "user",
          "type": "address"
        },
        {
          "indexed": true,
          "internalType": "address",
          "name": "pool",
          "type": "address"
        }
      ],
      "name": "SetPool",
      "type": "event"
    },
    {
      "anonymous": false,
      "inputs": [
        {
          "indexed": true,
          "internalType": "address",
          "name": "rewardToken",
          "type": "address"
        }
      ],
      "name": "SetRewardToken",
      "type": "event"
    },
    {
      "anonymous": false,
      "inputs": [
        {
          "indexed": true,
          "internalType": "address",
          "name": "user",
          "type": "address"
        },
        {
          "indexed": true,
          "internalType": "uint256",
          "name": "amount",
          "type": "uint256"
        }
      ],
      "name": "WithdrawReward",
      "type": "event"
    },
    {
      "inputs": [
        {
          "internalType": "uint256",
          "name": "_amount",
          "type": "uint256"
        }
      ],
      "name": "claimReward",
      "outputs": [
        {
          "internalType": "uint256",
          "name": "reward",
          "type": "uint256"
        }
      ],
      "stateMutability": "nonpayable",
      "type": "function"
    },
    {
      "inputs": [],
      "name": "getBalance",
      "outputs": [
        {
          "internalType": "uint256",
          "name": "",
          "type": "uint256"
        }
      ],
      "stateMutability": "view",
      "type": "function"
    },
    {
      "inputs": [],
      "name": "owner",
      "outputs": [
        {
          "internalType": "address",
          "name": "",
          "type": "address"
        }
      ],
      "stateMutability": "view",
      "type": "function"
    },
    {
      "inputs": [
        {
          "internalType": "uint256",
          "name": "_amount",
          "type": "uint256"
        }
      ],
      "name": "pendingReward",
      "outputs": [
        {
          "internalType": "uint256",
          "name": "reward",
          "type": "uint256"
        }
      ],
      "stateMutability": "view",
      "type": "function"
    },
    {
      "inputs": [],
      "name": "pool",
      "outputs": [
        {
          "internalType": "address",
          "name": "",
          "type": "address"
        }
      ],
      "stateMutability": "view",
      "type": "function"
    },
    {
      "inputs": [],
      "name": "renounceOwnership",
      "outputs": [],
      "stateMutability": "nonpayable",
      "type": "function"
    },
    {
      "inputs": [],
      "name": "rewardAmount",
      "outputs": [
        {
          "internalType": "uint256",
          "name": "",
          "type": "uint256"
        }
      ],
      "stateMutability": "view",
      "type": "function"
    },
    {
      "inputs": [],
      "name": "rewardToken",
      "outputs": [
        {
          "internalType": "contract IERC20",
          "name": "",
          "type": "address"
        }
      ],
      "stateMutability": "view",
      "type": "function"
    },
    {
      "inputs": [
        {
          "internalType": "address",
          "name": "_pool",
          "type": "address"
        }
      ],
      "name": "setPool",
      "outputs": [],
      "stateMutability": "nonpayable",
      "type": "function"
    },
    {
      "inputs": [
        {
          "internalType": "contract IERC20",
          "name": "_rewardToken",
          "type": "address"
        }
      ],
      "name": "setRewardToken",
      "outputs": [],
      "stateMutability": "nonpayable",
      "type": "function"
    },
    {
      "inputs": [
        {
          "internalType": "address",
          "name": "newOwner",
          "type": "address"
        }
      ],
      "name": "transferOwnership",
      "outputs": [],
      "stateMutability": "nonpayable",
      "type": "function"
    }
  ],
  "bytecode": "0x608060405234801561001057600080fd5b50604051610b9e380380610b9e83398101604081905261002f916100ad565b6100383361005d565b600180546001600160a01b0319166001600160a01b03929092169190911790556100dd565b600080546001600160a01b038381166001600160a01b0319831681178455604051919092169283917f8be0079c531659141344cd1fd0a4f28419497f9722a3daafe3b4186f6b6457e09190a35050565b6000602082840312156100bf57600080fd5b81516001600160a01b03811681146100d657600080fd5b9392505050565b610ab2806100ec6000396000f3fe608060405234801561001057600080fd5b50600436106100c95760003560e01c80638aee812711610081578063f2fde38b1161005b578063f2fde38b1461017b578063f7b2a7be1461018e578063f7c618c11461019757600080fd5b80638aee8127146101445780638da5cb5b14610157578063ae169a501461016857600080fd5b806316f0115b116100b257806316f0115b146100fc5780634437152a14610127578063715018a61461013c57600080fd5b806312065fe0146100ce57806312f7086c146100e9575b600080fd5b6100d66101aa565b6040519081526020015b60405180910390f35b6100d66100f7366004610949565b61023a565b60025461010f906001600160a01b031681565b6040516001600160a01b0390911681526020016100e0565b61013a610135366004610977565b61025b565b005b61013a610375565b61013a610152366004610977565b610389565b6000546001600160a01b031661010f565b6100d6610176366004610949565b6103e8565b61013a610189366004610977565b6104db565b6100d660035481565b60015461010f906001600160a01b031681565b6001546040517f70a0823100000000000000000000000000000000000000000000000000000000815230600482015260009182916001600160a01b03909116906370a0823190602401602060405180830381865afa158015610210573d6000803e3d6000fd5b505050506040513d601f19601f820116820180604052508101906102349190610994565b92915050565b60006102446101aa565b821115610253576102346101aa565b50805b919050565b61026361056b565b6001600160a01b0381166102be5760405162461bcd60e51b815260206004820152601f60248201527f5265776172644469737472696275746f723a205a45524f5f414444524553530060448201526064015b60405180910390fd5b6002546001600160a01b039081169082160361031c5760405162461bcd60e51b815260206004820152601f60248201527f5265776172644469737472696275746f723a2053414d455f41535f504f4f4c0060448201526064016102b5565b6002805473ffffffffffffffffffffffffffffffffffffffff19166001600160a01b03831690811790915560405133907f390ace337562623e4cf938891cfa7e80b7b2e6ff395963aba93e537ce67e842c90600090a350565b61037d61056b565b61038760006105c5565b565b61039161056b565b6001805473ffffffffffffffffffffffffffffffffffffffff19166001600160a01b0383169081179091556040517f6f8c206ce9f10423f2b99164314c3e6e47f872d0d56a1c072c5e5bb4a9b9cd3690600090a250565b6002546000906001600160a01b0316331461046b5760405162461bcd60e51b815260206004820152602560248201527f5265776172644469737472696275746f723a204f4e4c595f504f4f4c5f43414e60448201527f5f43414c4c00000000000000000000000000000000000000000000000000000060648201526084016102b5565b6104748261023a565b9050801561025657600254600154610499916001600160a01b03918216911683610622565b6003546104a690826106a7565b600355604051819033907fba8de60c3403ec381d1d484652ea1980e3c3e56359195c92525bff4ce47ad98e90600090a3919050565b6104e361056b565b6001600160a01b03811661055f5760405162461bcd60e51b815260206004820152602660248201527f4f776e61626c653a206e6577206f776e657220697320746865207a65726f206160448201527f646472657373000000000000000000000000000000000000000000000000000060648201526084016102b5565b610568816105c5565b50565b6000546001600160a01b031633146103875760405162461bcd60e51b815260206004820181905260248201527f4f776e61626c653a2063616c6c6572206973206e6f7420746865206f776e657260448201526064016102b5565b600080546001600160a01b0383811673ffffffffffffffffffffffffffffffffffffffff19831681178455604051919092169283917f8be0079c531659141344cd1fd0a4f28419497f9722a3daafe3b4186f6b6457e09190a35050565b604080516001600160a01b038416602482015260448082018490528251808303909101815260649091019091526020810180517bffffffffffffffffffffffffffffffffffffffffffffffffffffffff167fa9059cbb000000000000000000000000000000000000000000000000000000001790526106a29084906106ba565b505050565b60006106b382846109ad565b9392505050565b600061070f826040518060400160405280602081526020017f5361666545524332303a206c6f772d6c6576656c2063616c6c206661696c6564815250856001600160a01b03166107a29092919063ffffffff16565b905080516000148061073057508080602001905181019061073091906109e7565b6106a25760405162461bcd60e51b815260206004820152602a60248201527f5361666545524332303a204552433230206f7065726174696f6e20646964206e60448201527f6f7420737563636565640000000000000000000000000000000000000000000060648201526084016102b5565b60606107b184846000856107b9565b949350505050565b6060824710156108315760405162461bcd60e51b815260206004820152602660248201527f416464726573733a20696e73756666696369656e742062616c616e636520666f60448201527f722063616c6c000000000000000000000000000000000000000000000000000060648201526084016102b5565b600080866001600160a01b0316858760405161084d9190610a2d565b60006040518083038185875af1925050503d806000811461088a576040519150601f19603f3d011682016040523d82523d6000602084013e61088f565b606091505b50915091506108a0878383876108ab565b979650505050505050565b6060831561091a578251600003610913576001600160a01b0385163b6109135760405162461bcd60e51b815260206004820152601d60248201527f416464726573733a2063616c6c20746f206e6f6e2d636f6e747261637400000060448201526064016102b5565b50816107b1565b6107b1838381511561092f5781518083602001fd5b8060405162461bcd60e51b81526004016102b59190610a49565b60006020828403121561095b57600080fd5b5035919050565b6001600160a01b038116811461056857600080fd5b60006020828403121561098957600080fd5b81356106b381610962565b6000602082840312156109a657600080fd5b5051919050565b80820180821115610234577f4e487b7100000000000000000000000000000000000000000000000000000000600052601160045260246000fd5b6000602082840312156109f957600080fd5b815180151581146106b357600080fd5b60005b83811015610a24578181015183820152602001610a0c565b50506000910152565b60008251610a3f818460208701610a09565b9190910192915050565b6020815260008251806020840152610a68816040850160208701610a09565b601f01601f1916919091016040019291505056fea26469706673582212201fc65236098d99b20a379ccccf74ea0105ed9df68087155790925f092b41d74164736f6c63430008110033",
  "linkReferences": {},
  "deployedLinkReferences": {}
}