{
  "_format": "hh-sol-artifact-1",
  "contractName": "StakingPool",
  "sourceName": "contracts/StakingPool.sol",
  "abi": [
    {
      "inputs": [
        {
          "internalType": "contract IRewardDistributor",
          "name": "_rewardDistributor",
          "type": "address"
        },
        {
          "internalType": "contract IERC20",
          "name": "_stakingToken",
          "type": "address"
        },
        {
          "internalType": "uint256",
          "name": "_rewardPerBlock",
          "type": "uint256"
        },
        {
          "internalType": "uint256",
          "name": "_startBlock",
          "type": "uint256"
        }
      ],
      "stateMutability": "nonpayable",
      "type": "constructor"
    },
    {
      "anonymous": false,
      "inputs": [
        {
          "indexed": true,
          "internalType": "address",
          "name": "user",
          "type": "address"
        },
        {
          "indexed": false,
          "internalType": "uint256[]",
          "name": "indexList",
          "type": "uint256[]"
        },
        {
          "indexed": false,
          "internalType": "uint256",
          "name": "amount",
          "type": "uint256"
        }
      ],
      "name": "Claim",
      "type": "event"
    },
    {
      "anonymous": false,
      "inputs": [
        {
          "indexed": true,
          "internalType": "address",
          "name": "user",
          "type": "address"
        },
        {
          "indexed": false,
          "internalType": "uint256",
          "name": "index",
          "type": "uint256"
        },
        {
          "indexed": false,
          "internalType": "uint256",
          "name": "amount",
          "type": "uint256"
        }
      ],
      "name": "ClaimIndex",
      "type": "event"
    },
    {
      "anonymous": false,
      "inputs": [
        {
          "indexed": true,
          "internalType": "address",
          "name": "user",
          "type": "address"
        },
        {
          "indexed": false,
          "internalType": "uint256",
          "name": "amount",
          "type": "uint256"
        }
      ],
      "name": "EmergencyWithdraw",
      "type": "event"
    },
    {
      "anonymous": false,
      "inputs": [
        {
          "indexed": true,
          "internalType": "address",
          "name": "previousOwner",
          "type": "address"
        },
        {
          "indexed": true,
          "internalType": "address",
          "name": "newOwner",
          "type": "address"
        }
      ],
      "name": "OwnershipTransferred",
      "type": "event"
    },
    {
      "anonymous": false,
      "inputs": [
        {
          "indexed": true,
          "internalType": "uint256",
          "name": "rewardAmount",
          "type": "uint256"
        },
        {
          "indexed": true,
          "internalType": "uint256",
          "name": "startBlock",
          "type": "uint256"
        }
      ],
      "name": "SetRewardPerBlock",
      "type": "event"
    },
    {
      "anonymous": false,
      "inputs": [
        {
          "indexed": true,
          "internalType": "address",
          "name": "user",
          "type": "address"
        },
        {
          "indexed": false,
          "internalType": "uint256",
          "name": "amount",
          "type": "uint256"
        }
      ],
      "name": "Stake",
      "type": "event"
    },
    {
      "anonymous": false,
      "inputs": [
        {
          "indexed": true,
          "internalType": "address",
          "name": "user",
          "type": "address"
        },
        {
          "indexed": false,
          "internalType": "uint256",
          "name": "index",
          "type": "uint256"
        },
        {
          "indexed": false,
          "internalType": "uint256",
          "name": "amount",
          "type": "uint256"
        },
        {
          "indexed": false,
          "internalType": "uint256",
          "name": "unlockBlock",
          "type": "uint256"
        }
      ],
      "name": "Unstake",
      "type": "event"
    },
    {
      "inputs": [],
      "name": "UNSTAKE_PERIOD",
      "outputs": [
        {
          "internalType": "uint256",
          "name": "",
          "type": "uint256"
        }
      ],
      "stateMutability": "view",
      "type": "function"
    },
    {
      "inputs": [],
      "name": "accRewardPerShare",
      "outputs": [
        {
          "internalType": "uint256",
          "name": "",
          "type": "uint256"
        }
      ],
      "stateMutability": "view",
      "type": "function"
    },
    {
      "inputs": [],
      "name": "claim",
      "outputs": [],
      "stateMutability": "nonpayable",
      "type": "function"
    },
    {
      "inputs": [
        {
          "internalType": "uint256",
          "name": "_index",
          "type": "uint256"
        }
      ],
      "name": "claimIndex",
      "outputs": [],
      "stateMutability": "nonpayable",
      "type": "function"
    },
    {
      "inputs": [
        {
          "internalType": "uint256",
          "name": "_amount",
          "type": "uint256"
        }
      ],
      "name": "emergencyWithdraw",
      "outputs": [],
      "stateMutability": "nonpayable",
      "type": "function"
    },
    {
      "inputs": [
        {
          "internalType": "address",
          "name": "_user",
          "type": "address"
        }
      ],
      "name": "freezing",
      "outputs": [
        {
          "internalType": "uint256",
          "name": "",
          "type": "uint256"
        }
      ],
      "stateMutability": "view",
      "type": "function"
    },
    {
      "inputs": [],
      "name": "lastRewardBlock",
      "outputs": [
        {
          "internalType": "uint256",
          "name": "",
          "type": "uint256"
        }
      ],
      "stateMutability": "view",
      "type": "function"
    },
    {
      "inputs": [],
      "name": "owner",
      "outputs": [
        {
          "internalType": "address",
          "name": "",
          "type": "address"
        }
      ],
      "stateMutability": "view",
      "type": "function"
    },
    {
      "inputs": [
        {
          "internalType": "address",
          "name": "_user",
          "type": "address"
        }
      ],
      "name": "pendingClaim",
      "outputs": [
        {
          "internalType": "uint256",
          "name": "",
          "type": "uint256"
        }
      ],
      "stateMutability": "view",
      "type": "function"
    },
    {
      "inputs": [
        {
          "internalType": "address",
          "name": "_user",
          "type": "address"
        }
      ],
      "name": "pendingReward",
      "outputs": [
        {
          "internalType": "uint256",
          "name": "",
          "type": "uint256"
        }
      ],
      "stateMutability": "view",
      "type": "function"
    },
    {
      "inputs": [],
      "name": "renounceOwnership",
      "outputs": [],
      "stateMutability": "nonpayable",
      "type": "function"
    },
    {
      "inputs": [],
      "name": "rewardDistributor",
      "outputs": [
        {
          "internalType": "contract IRewardDistributor",
          "name": "",
          "type": "address"
        }
      ],
      "stateMutability": "view",
      "type": "function"
    },
    {
      "inputs": [],
      "name": "rewardPerBlock",
      "outputs": [
        {
          "internalType": "uint256",
          "name": "",
          "type": "uint256"
        }
      ],
      "stateMutability": "view",
      "type": "function"
    },
    {
      "inputs": [
        {
          "internalType": "contract IRewardDistributor",
          "name": "_rewardDistributor",
          "type": "address"
        }
      ],
      "name": "setRewardDistributor",
      "outputs": [],
      "stateMutability": "nonpayable",
      "type": "function"
    },
    {
      "inputs": [
        {
          "internalType": "uint256",
          "name": "_newPerBlock",
          "type": "uint256"
        }
      ],
      "name": "setRewardPerBlock",
      "outputs": [],
      "stateMutability": "nonpayable",
      "type": "function"
    },
    {
      "inputs": [
        {
          "internalType": "uint256",
          "name": "_amount",
          "type": "uint256"
        }
      ],
      "name": "stake",
      "outputs": [],
      "stateMutability": "nonpayable",
      "type": "function"
    },
    {
      "inputs": [],
      "name": "stakedAmount",
      "outputs": [
        {
          "internalType": "uint256",
          "name": "",
          "type": "uint256"
        }
      ],
      "stateMutability": "view",
      "type": "function"
    },
    {
      "inputs": [],
      "name": "stakingToken",
      "outputs": [
        {
          "internalType": "contract IERC20",
          "name": "",
          "type": "address"
        }
      ],
      "stateMutability": "view",
      "type": "function"
    },
    {
      "inputs": [],
      "name": "totalReward",
      "outputs": [
        {
          "internalType": "uint256",
          "name": "",
          "type": "uint256"
        }
      ],
      "stateMutability": "view",
      "type": "function"
    },
    {
      "inputs": [
        {
          "internalType": "address",
          "name": "newOwner",
          "type": "address"
        }
      ],
      "name": "transferOwnership",
      "outputs": [],
      "stateMutability": "nonpayable",
      "type": "function"
    },
    {
      "inputs": [
        {
          "internalType": "uint256",
          "name": "_amount",
          "type": "uint256"
        }
      ],
      "name": "unstake",
      "outputs": [],
      "stateMutability": "nonpayable",
      "type": "function"
    },
    {
      "inputs": [],
      "name": "update",
      "outputs": [],
      "stateMutability": "nonpayable",
      "type": "function"
    },
    {
      "inputs": [
        {
          "internalType": "address",
          "name": "",
          "type": "address"
        }
      ],
      "name": "userInfo",
      "outputs": [
        {
          "internalType": "uint256",
          "name": "amount",
          "type": "uint256"
        },
        {
          "internalType": "uint256",
          "name": "rewardDebt",
          "type": "uint256"
        }
      ],
      "stateMutability": "view",
      "type": "function"
    },
    {
      "inputs": [
        {
          "internalType": "address",
          "name": "",
          "type": "address"
        },
        {
          "internalType": "uint256",
          "name": "",
          "type": "uint256"
        }
      ],
      "name": "userUnstakeInfo",
      "outputs": [
        {
          "internalType": "uint256",
          "name": "amount",
          "type": "uint256"
        },
        {
          "internalType": "uint256",
          "name": "unlockBlock",
          "type": "uint256"
        }
      ],
      "stateMutability": "view",
      "type": "function"
    },
    {
      "inputs": [
        {
          "internalType": "address",
          "name": "_user",
          "type": "address"
        }
      ],
      "name": "userUnstakeInfoLength",
      "outputs": [
        {
          "internalType": "uint256",
          "name": "",
          "type": "uint256"
        }
      ],
      "stateMutability": "view",
      "type": "function"
    }
  ],
  "bytecode": "0x60806040523480156200001157600080fd5b5060405162001a9a38038062001a9a833981016040819052620000349162000208565b6200003f336200019f565b6001600160a01b038416620000b35760405162461bcd60e51b815260206004820152602f60248201527f5374616b696e67506f6f6c3a205245574152445f4449535452494255544f525f60448201526e49535f5a45524f5f4144445245535360881b60648201526084015b60405180910390fd5b6001600160a01b0383166200011e5760405162461bcd60e51b815260206004820152602a60248201527f5374616b696e67506f6f6c3a205354414b494e475f544f4b454e5f49535f5a45604482015269524f5f4144445245535360b01b6064820152608401620000aa565b600280546001600160a01b038087166001600160a01b0319928316179092556001805492861692909116919091179055600582905543811062000162578062000164565b435b60068190556005546040517f52c807d1e2187528e4d89ed62cff6903bf27704b73db2e397fd8d9d7d954bd6590600090a35050505062000255565b600080546001600160a01b038381166001600160a01b0319831681178455604051919092169283917f8be0079c531659141344cd1fd0a4f28419497f9722a3daafe3b4186f6b6457e09190a35050565b6001600160a01b03811681146200020557600080fd5b50565b600080600080608085870312156200021f57600080fd5b84516200022c81620001ef565b60208601519094506200023f81620001ef565b6040860151606090960151949790965092505050565b61183580620002656000396000f3fe608060405234801561001057600080fd5b50600436106101a35760003560e01c806379b57862116100ee578063a694fc3a11610097578063b2e8d7e111610071578063b2e8d7e114610343578063bb872b4a14610356578063f2fde38b14610369578063f40f0f521461037c57600080fd5b8063a694fc3a14610314578063a9f8d18114610327578063acc2166a1461033057600080fd5b8063939d6237116100c8578063939d6237146102f0578063a1809b95146102f9578063a2e620451461030c57600080fd5b806379b57862146102ce5780638ae39cac146102d65780638da5cb5b146102df57600080fd5b80634e71d92d11610150578063715018a61161012a578063715018a61461029257806372f702f31461029a578063750142e6146102c557600080fd5b80634e71d92d146102645780635312ea8e1461026c5780635c8044761461027f57600080fd5b80631959a002116101815780631959a0021461020a5780632e17de7814610246578063373d61321461025b57600080fd5b80630eb968ba146101a85780630ef4b248146101e45780631576c3d8146101f7575b600080fd5b6101d16101b63660046115c3565b6001600160a01b031660009081526004602052604090205490565b6040519081526020015b60405180910390f35b6101d16101f23660046115c3565b61038f565b6101d16102053660046115c3565b610445565b6102316102183660046115c3565b6003602052600090815260409020805460019091015482565b604080519283526020830191909152016101db565b6102596102543660046115e7565b6104f4565b005b6101d160085481565b6102596106eb565b61025961027a3660046115e7565b6108db565b61025961028d3660046115e7565b610932565b610259610abf565b6001546102ad906001600160a01b031681565b6040516001600160a01b0390911681526020016101db565b6101d160095481565b6101d1606481565b6101d160055481565b6000546001600160a01b03166102ad565b6101d160075481565b6102596103073660046115c3565b610ad3565b610259610b60565b6102596103223660046115e7565b610c79565b6101d160065481565b6002546102ad906001600160a01b031681565b610231610351366004611600565b610d80565b6102596103643660046115e7565b610dbc565b6102596103773660046115c3565b610e01565b6101d161038a3660046115c3565b610e91565b6001600160a01b03811660009081526004602052604081205481805b8281101561043d576001600160a01b03851660009081526004602052604081208054839081106103dd576103dd61162c565b60009182526020918290206040805180820190915260029092020180548252600101549181018290529150431180156104165750805115155b1561042a5780516104279084611658565b92505b508061043581611671565b9150506103ab565b509392505050565b6001600160a01b03811660009081526004602052604081205481805b8281101561043d576001600160a01b03851660009081526004602052604081208054839081106104935761049361162c565b6000918252602091829020604080518082019091526002909202018054825260010154918101829052915043118015906104cd5750805115155b156104e15780516104de9084611658565b92505b50806104ec81611671565b915050610461565b33600090815260036020526040902080548211156105595760405162461bcd60e51b815260206004820181905260248201527f5374616b696e67506f6f6c3a20494e53554646494349454e545f414d4f554e5460448201526064015b60405180910390fd5b8160085410156105ab5760405162461bcd60e51b815260206004820152601e60248201527f5374616b696e67506f6f6c3a204e4f545f454e4f5547485f5354414b454400006044820152606401610550565b6105b3610b60565b6000816001015464e8d4a5100060075484600001546105d2919061168a565b6105dc91906116a1565b6105e691906116c3565b90506105f23382610fef565b81546105ff9084906116c3565b80835560075464e8d4a5100091610616919061168a565b61062091906116a1565b8260010181905550826008600082825461063a91906116c3565b90915550503360009081526004602090815260409182902080548351808501909452868452929091810161066f606443611658565b9052815460018181018455600093845260209384902083516002909302019182559290910151910155337ffbd65cfd6de1493db337385c0712095397ecbd0504df64b861cdfceb80c7b42282866106c7606443611658565b6040805193845260208401929092529082015260600160405180910390a250505050565b33600090815260046020526040812054908080805b84811015610788573360009081526004602052604081208054839081106107295761072961162c565b60009182526020918290206040805180820190915260029092020180548252600101549181018290529150431180156107625750805115155b1561077557610772600185611658565b93505b508061078081611671565b915050610700565b5060008267ffffffffffffffff8111156107a4576107a46116d6565b6040519080825280602002602001820160405280156107cd578160200160208202803683370190505b50905060005b85811015610879573360009081526004602052604081208054839081106107fc576107fc61162c565b9060005260206000209060020201905043816001015410801561081f5750805415155b156108665780546108309087611658565b600082558351909650829084908690811061084d5761084d61162c565b6020908102919091010152610863600185611658565b93505b508061087181611671565b9150506107d3565b50600154610891906001600160a01b031633866111ec565b336001600160a01b03167fbb39cc58932f85e3e9d3d6b8b315e628b6ea052a07d36a8d550d9ff478cbf4df82866040516108cc9291906116ec565b60405180910390a25050505050565b6108e3611295565b6001546108fa906001600160a01b031633836111ec565b60405181815233907f5fafa99d0643513820be26656b45130b01e1c03062e1266bf36f88cbd3bd96959060200160405180910390a250565b3360009081526004602052604090205481106109905760405162461bcd60e51b815260206004820152601960248201527f5374616b696e67506f6f6c3a204f55545f4f465f424f554e44000000000000006044820152606401610550565b3360009081526004602052604081208054839081106109b1576109b161162c565b9060005260206000209060020201905043816001015410610a145760405162461bcd60e51b815260206004820152601760248201527f5374616b696e67506f6f6c3a204e4f545f554e4c4f434b0000000000000000006044820152606401610550565b8054610a625760405162461bcd60e51b815260206004820152601c60248201527f5374616b696e67506f6f6c3a20414c52454144595f434c41494d4544000000006044820152606401610550565b805460008255600154610a7f906001600160a01b031633836111ec565b604080518481526020810183905233917f97345b40884a0deaba8cde1b82ec59ee21d1889eadb4f23f61428e6707984312910160405180910390a2505050565b610ac7611295565b610ad160006112ef565b565b610adb611295565b6001600160a01b038116610b315760405162461bcd60e51b815260206004820152601960248201527f5374616b696e67506f6f6c3a205a45524f5f41444452455353000000000000006044820152606401610550565b6002805473ffffffffffffffffffffffffffffffffffffffff19166001600160a01b0392909216919091179055565b6006544311610b6b57565b600854600003610b7b5743600655565b600060065443610b8b91906116c3565b9050600060055482610b9d919061168a565b6002546040517fae169a50000000000000000000000000000000000000000000000000000000008152600481018390529192506000916001600160a01b039091169063ae169a50906024016020604051808303816000875af1158015610c07573d6000803e3d6000fd5b505050506040513d601f19601f82011682018060405250810190610c2b9190611734565b90508060096000828254610c3f9190611658565b9091555050600854610c568264e8d4a5100061168a565b610c6091906116a1565b600754610c6d9190611658565b60075550504360065550565b336000908152600360205260409020610c90610b60565b805415610cd8576000816001015464e8d4a510006007548460000154610cb6919061168a565b610cc091906116a1565b610cca91906116c3565b9050610cd63382610fef565b505b600154610cf0906001600160a01b031633308561134c565b81816000016000828254610d049190611658565b9091555050600754815464e8d4a5100091610d1e9161168a565b610d2891906116a1565b81600101819055508160086000828254610d429190611658565b909155505060405182815233907febedb8b3c678666e7f36970bc8f57abf6d8fa2e828c0da91ea5b75bf68ed101a9060200160405180910390a25050565b60046020528160005260406000208181548110610d9c57600080fd5b600091825260209091206002909102018054600190910154909250905082565b610dc4611295565b610dcc610b60565b6005819055604051439082907f52c807d1e2187528e4d89ed62cff6903bf27704b73db2e397fd8d9d7d954bd6590600090a350565b610e09611295565b6001600160a01b038116610e855760405162461bcd60e51b815260206004820152602660248201527f4f776e61626c653a206e6577206f776e657220697320746865207a65726f206160448201527f64647265737300000000000000000000000000000000000000000000000000006064820152608401610550565b610e8e816112ef565b50565b6001600160a01b0381166000908152600360209081526040808320815180830190925280548252600101549181019190915260075460065443118015610ed8575060085415155b15610fba57600060065443610eed91906116c3565b9050600060055482610eff919061168a565b6002546040517f12f7086c000000000000000000000000000000000000000000000000000000008152600481018390529192506000916001600160a01b03909116906312f7086c90602401602060405180830381865afa158015610f67573d6000803e3d6000fd5b505050506040513d601f19601f82011682018060405250810190610f8b9190611734565b600854909150610fa08264e8d4a5100061168a565b610faa91906116a1565b610fb49085611658565b93505050505b6020820151825164e8d4a5100090610fd390849061168a565b610fdd91906116a1565b610fe791906116c3565b949350505050565b600254604080517ff7c618c100000000000000000000000000000000000000000000000000000000815290516000926001600160a01b03169163f7c618c19160048083019260209291908290030181865afa158015611052573d6000803e3d6000fd5b505050506040513d601f19601f82011682018060405250810190611076919061174d565b6040517f70a082310000000000000000000000000000000000000000000000000000000081523060048201526001600160a01b0391909116906370a0823190602401602060405180830381865afa1580156110d5573d6000803e3d6000fd5b505050506040513d601f19601f820116820180604052508101906110f99190611734565b9050808211156111945761118f8382600260009054906101000a90046001600160a01b03166001600160a01b031663f7c618c16040518163ffffffff1660e01b8152600401602060405180830381865afa15801561115b573d6000803e3d6000fd5b505050506040513d601f19601f8201168201806040525081019061117f919061174d565b6001600160a01b031691906111ec565b505050565b61118f8383600260009054906101000a90046001600160a01b03166001600160a01b031663f7c618c16040518163ffffffff1660e01b8152600401602060405180830381865afa15801561115b573d6000803e3d6000fd5b6040516001600160a01b03831660248201526044810182905261118f9084907fa9059cbb00000000000000000000000000000000000000000000000000000000906064015b60408051601f198184030181529190526020810180517bffffffffffffffffffffffffffffffffffffffffffffffffffffffff167fffffffff00000000000000000000000000000000000000000000000000000000909316929092179091526113a3565b6000546001600160a01b03163314610ad15760405162461bcd60e51b815260206004820181905260248201527f4f776e61626c653a2063616c6c6572206973206e6f7420746865206f776e65726044820152606401610550565b600080546001600160a01b0383811673ffffffffffffffffffffffffffffffffffffffff19831681178455604051919092169283917f8be0079c531659141344cd1fd0a4f28419497f9722a3daafe3b4186f6b6457e09190a35050565b6040516001600160a01b038085166024830152831660448201526064810182905261139d9085907f23b872dd0000000000000000000000000000000000000000000000000000000090608401611231565b50505050565b60006113f8826040518060400160405280602081526020017f5361666545524332303a206c6f772d6c6576656c2063616c6c206661696c6564815250856001600160a01b031661148b9092919063ffffffff16565b9050805160001480611419575080806020019051810190611419919061176a565b61118f5760405162461bcd60e51b815260206004820152602a60248201527f5361666545524332303a204552433230206f7065726174696f6e20646964206e60448201527f6f742073756363656564000000000000000000000000000000000000000000006064820152608401610550565b6060610fe7848460008585600080866001600160a01b031685876040516114b291906117b0565b60006040518083038185875af1925050503d80600081146114ef576040519150601f19603f3d011682016040523d82523d6000602084013e6114f4565b606091505b509150915061150587838387611510565b979650505050505050565b6060831561157f578251600003611578576001600160a01b0385163b6115785760405162461bcd60e51b815260206004820152601d60248201527f416464726573733a2063616c6c20746f206e6f6e2d636f6e74726163740000006044820152606401610550565b5081610fe7565b610fe783838151156115945781518083602001fd5b8060405162461bcd60e51b815260040161055091906117cc565b6001600160a01b0381168114610e8e57600080fd5b6000602082840312156115d557600080fd5b81356115e0816115ae565b9392505050565b6000602082840312156115f957600080fd5b5035919050565b6000806040838503121561161357600080fd5b823561161e816115ae565b946020939093013593505050565b634e487b7160e01b600052603260045260246000fd5b634e487b7160e01b600052601160045260246000fd5b8082018082111561166b5761166b611642565b92915050565b60006001820161168357611683611642565b5060010190565b808202811582820484141761166b5761166b611642565b6000826116be57634e487b7160e01b600052601260045260246000fd5b500490565b8181038181111561166b5761166b611642565b634e487b7160e01b600052604160045260246000fd5b604080825283519082018190526000906020906060840190828701845b8281101561172557815184529284019290840190600101611709565b50505092019290925292915050565b60006020828403121561174657600080fd5b5051919050565b60006020828403121561175f57600080fd5b81516115e0816115ae565b60006020828403121561177c57600080fd5b815180151581146115e057600080fd5b60005b838110156117a757818101518382015260200161178f565b50506000910152565b600082516117c281846020870161178c565b9190910192915050565b60208152600082518060208401526117eb81604085016020870161178c565b601f01601f1916919091016040019291505056fea26469706673582212207586ceb62da16296c4b8c83d10ce5f8891b29cd6c507f9ea9ab0f64fd6e22e5e64736f6c63430008110033",
  "linkReferences": {},
  "deployedLinkReferences": {}
}