{
  "_format": "hh-sol-artifact-1",
  "contractName": "StakingPool",
  "sourceName": "contracts/StakingPool.sol",
  "abi": [
    {
      "inputs": [
        {
          "internalType": "contract IRewardDistributor",
          "name": "_rewardDistributor",
          "type": "address"
        },
        {
          "internalType": "contract IERC20",
          "name": "_stakingToken",
          "type": "address"
        },
        {
          "internalType": "uint256",
          "name": "_rewardPerBlock",
          "type": "uint256"
        },
        {
          "internalType": "uint256",
          "name": "_startBlock",
          "type": "uint256"
        }
      ],
      "stateMutability": "nonpayable",
      "type": "constructor"
    },
    {
      "anonymous": false,
      "inputs": [
        {
          "indexed": true,
          "internalType": "address",
          "name": "user",
          "type": "address"
        },
        {
          "indexed": false,
          "internalType": "uint256",
          "name": "amount",
          "type": "uint256"
        }
      ],
      "name": "Claim",
      "type": "event"
    },
    {
      "anonymous": false,
      "inputs": [
        {
          "indexed": true,
          "internalType": "address",
          "name": "user",
          "type": "address"
        },
        {
          "indexed": false,
          "internalType": "uint256",
          "name": "index",
          "type": "uint256"
        },
        {
          "indexed": false,
          "internalType": "uint256",
          "name": "amount",
          "type": "uint256"
        }
      ],
      "name": "ClaimIndex",
      "type": "event"
    },
    {
      "anonymous": false,
      "inputs": [
        {
          "indexed": true,
          "internalType": "address",
          "name": "user",
          "type": "address"
        },
        {
          "indexed": false,
          "internalType": "uint256",
          "name": "amount",
          "type": "uint256"
        }
      ],
      "name": "EmergencyWithdraw",
      "type": "event"
    },
    {
      "anonymous": false,
      "inputs": [
        {
          "indexed": true,
          "internalType": "address",
          "name": "previousOwner",
          "type": "address"
        },
        {
          "indexed": true,
          "internalType": "address",
          "name": "newOwner",
          "type": "address"
        }
      ],
      "name": "OwnershipTransferred",
      "type": "event"
    },
    {
      "anonymous": false,
      "inputs": [
        {
          "indexed": true,
          "internalType": "uint256",
          "name": "rewardAmount",
          "type": "uint256"
        },
        {
          "indexed": true,
          "internalType": "uint256",
          "name": "startBlock",
          "type": "uint256"
        }
      ],
      "name": "SetRewardPerBlock",
      "type": "event"
    },
    {
      "anonymous": false,
      "inputs": [
        {
          "indexed": true,
          "internalType": "address",
          "name": "user",
          "type": "address"
        },
        {
          "indexed": false,
          "internalType": "uint256",
          "name": "amount",
          "type": "uint256"
        }
      ],
      "name": "Stake",
      "type": "event"
    },
    {
      "anonymous": false,
      "inputs": [
        {
          "indexed": true,
          "internalType": "address",
          "name": "user",
          "type": "address"
        },
        {
          "indexed": false,
          "internalType": "uint256",
          "name": "amount",
          "type": "uint256"
        },
        {
          "indexed": false,
          "internalType": "uint256",
          "name": "unlockBlock",
          "type": "uint256"
        }
      ],
      "name": "Unstake",
      "type": "event"
    },
    {
      "inputs": [],
      "name": "UNSTAKE_PERIOD",
      "outputs": [
        {
          "internalType": "uint256",
          "name": "",
          "type": "uint256"
        }
      ],
      "stateMutability": "view",
      "type": "function"
    },
    {
      "inputs": [],
      "name": "accRewardPerShare",
      "outputs": [
        {
          "internalType": "uint256",
          "name": "",
          "type": "uint256"
        }
      ],
      "stateMutability": "view",
      "type": "function"
    },
    {
      "inputs": [],
      "name": "claim",
      "outputs": [],
      "stateMutability": "nonpayable",
      "type": "function"
    },
    {
      "inputs": [
        {
          "internalType": "uint256",
          "name": "_index",
          "type": "uint256"
        }
      ],
      "name": "claimIndex",
      "outputs": [],
      "stateMutability": "nonpayable",
      "type": "function"
    },
    {
      "inputs": [
        {
          "internalType": "uint256",
          "name": "_amount",
          "type": "uint256"
        }
      ],
      "name": "emergencyWithdraw",
      "outputs": [],
      "stateMutability": "nonpayable",
      "type": "function"
    },
    {
      "inputs": [
        {
          "internalType": "address",
          "name": "_user",
          "type": "address"
        }
      ],
      "name": "freezing",
      "outputs": [
        {
          "internalType": "uint256",
          "name": "",
          "type": "uint256"
        }
      ],
      "stateMutability": "view",
      "type": "function"
    },
    {
      "inputs": [],
      "name": "lastRewardBlock",
      "outputs": [
        {
          "internalType": "uint256",
          "name": "",
          "type": "uint256"
        }
      ],
      "stateMutability": "view",
      "type": "function"
    },
    {
      "inputs": [],
      "name": "owner",
      "outputs": [
        {
          "internalType": "address",
          "name": "",
          "type": "address"
        }
      ],
      "stateMutability": "view",
      "type": "function"
    },
    {
      "inputs": [
        {
          "internalType": "address",
          "name": "_user",
          "type": "address"
        }
      ],
      "name": "pendingClaim",
      "outputs": [
        {
          "internalType": "uint256",
          "name": "",
          "type": "uint256"
        }
      ],
      "stateMutability": "view",
      "type": "function"
    },
    {
      "inputs": [
        {
          "internalType": "address",
          "name": "_user",
          "type": "address"
        }
      ],
      "name": "pendingReward",
      "outputs": [
        {
          "internalType": "uint256",
          "name": "",
          "type": "uint256"
        }
      ],
      "stateMutability": "view",
      "type": "function"
    },
    {
      "inputs": [],
      "name": "renounceOwnership",
      "outputs": [],
      "stateMutability": "nonpayable",
      "type": "function"
    },
    {
      "inputs": [],
      "name": "rewardDistributor",
      "outputs": [
        {
          "internalType": "contract IRewardDistributor",
          "name": "",
          "type": "address"
        }
      ],
      "stateMutability": "view",
      "type": "function"
    },
    {
      "inputs": [],
      "name": "rewardPerBlock",
      "outputs": [
        {
          "internalType": "uint256",
          "name": "",
          "type": "uint256"
        }
      ],
      "stateMutability": "view",
      "type": "function"
    },
    {
      "inputs": [
        {
          "internalType": "contract IRewardDistributor",
          "name": "_rewardDistributor",
          "type": "address"
        }
      ],
      "name": "setRewardDistributor",
      "outputs": [],
      "stateMutability": "nonpayable",
      "type": "function"
    },
    {
      "inputs": [
        {
          "internalType": "uint256",
          "name": "_newPerBlock",
          "type": "uint256"
        }
      ],
      "name": "setRewardPerBlock",
      "outputs": [],
      "stateMutability": "nonpayable",
      "type": "function"
    },
    {
      "inputs": [
        {
          "internalType": "uint256",
          "name": "_amount",
          "type": "uint256"
        }
      ],
      "name": "stake",
      "outputs": [],
      "stateMutability": "nonpayable",
      "type": "function"
    },
    {
      "inputs": [],
      "name": "stakedAmount",
      "outputs": [
        {
          "internalType": "uint256",
          "name": "",
          "type": "uint256"
        }
      ],
      "stateMutability": "view",
      "type": "function"
    },
    {
      "inputs": [],
      "name": "stakingToken",
      "outputs": [
        {
          "internalType": "contract IERC20",
          "name": "",
          "type": "address"
        }
      ],
      "stateMutability": "view",
      "type": "function"
    },
    {
      "inputs": [],
      "name": "totalReward",
      "outputs": [
        {
          "internalType": "uint256",
          "name": "",
          "type": "uint256"
        }
      ],
      "stateMutability": "view",
      "type": "function"
    },
    {
      "inputs": [
        {
          "internalType": "address",
          "name": "newOwner",
          "type": "address"
        }
      ],
      "name": "transferOwnership",
      "outputs": [],
      "stateMutability": "nonpayable",
      "type": "function"
    },
    {
      "inputs": [
        {
          "internalType": "uint256",
          "name": "_amount",
          "type": "uint256"
        }
      ],
      "name": "unstake",
      "outputs": [],
      "stateMutability": "nonpayable",
      "type": "function"
    },
    {
      "inputs": [],
      "name": "update",
      "outputs": [],
      "stateMutability": "nonpayable",
      "type": "function"
    },
    {
      "inputs": [
        {
          "internalType": "address",
          "name": "",
          "type": "address"
        }
      ],
      "name": "userInfo",
      "outputs": [
        {
          "internalType": "uint256",
          "name": "amount",
          "type": "uint256"
        },
        {
          "internalType": "uint256",
          "name": "rewardDebt",
          "type": "uint256"
        }
      ],
      "stateMutability": "view",
      "type": "function"
    },
    {
      "inputs": [
        {
          "internalType": "address",
          "name": "",
          "type": "address"
        },
        {
          "internalType": "uint256",
          "name": "",
          "type": "uint256"
        }
      ],
      "name": "userUnstakeInfo",
      "outputs": [
        {
          "internalType": "uint256",
          "name": "amount",
          "type": "uint256"
        },
        {
          "internalType": "uint256",
          "name": "unlockBlock",
          "type": "uint256"
        }
      ],
      "stateMutability": "view",
      "type": "function"
    },
    {
      "inputs": [
        {
          "internalType": "address",
          "name": "_user",
          "type": "address"
        }
      ],
      "name": "userUnstakeInfoLength",
      "outputs": [
        {
          "internalType": "uint256",
          "name": "",
          "type": "uint256"
        }
      ],
      "stateMutability": "view",
      "type": "function"
    }
  ],
  "bytecode": "0x60806040523480156200001157600080fd5b506040516200191538038062001915833981016040819052620000349162000208565b6200003f336200019f565b6001600160a01b038416620000b35760405162461bcd60e51b815260206004820152602f60248201527f5374616b696e67506f6f6c3a205245574152445f4449535452494255544f525f60448201526e49535f5a45524f5f4144445245535360881b60648201526084015b60405180910390fd5b6001600160a01b0383166200011e5760405162461bcd60e51b815260206004820152602a60248201527f5374616b696e67506f6f6c3a205354414b494e475f544f4b454e5f49535f5a45604482015269524f5f4144445245535360b01b6064820152608401620000aa565b600280546001600160a01b038087166001600160a01b0319928316179092556001805492861692909116919091179055600582905543811062000162578062000164565b435b60068190556005546040517f52c807d1e2187528e4d89ed62cff6903bf27704b73db2e397fd8d9d7d954bd6590600090a35050505062000255565b600080546001600160a01b038381166001600160a01b0319831681178455604051919092169283917f8be0079c531659141344cd1fd0a4f28419497f9722a3daafe3b4186f6b6457e09190a35050565b6001600160a01b03811681146200020557600080fd5b50565b600080600080608085870312156200021f57600080fd5b84516200022c81620001ef565b60208601519094506200023f81620001ef565b6040860151606090960151949790965092505050565b6116b080620002656000396000f3fe608060405234801561001057600080fd5b50600436106101a35760003560e01c806379b57862116100ee578063a694fc3a11610097578063b2e8d7e111610071578063b2e8d7e114610345578063bb872b4a14610358578063f2fde38b1461036b578063f40f0f521461037e57600080fd5b8063a694fc3a14610316578063a9f8d18114610329578063acc2166a1461033257600080fd5b8063939d6237116100c8578063939d6237146102f2578063a1809b95146102fb578063a2e620451461030e57600080fd5b806379b57862146102ce5780638ae39cac146102d85780638da5cb5b146102e157600080fd5b80634e71d92d11610150578063715018a61161012a578063715018a61461029257806372f702f31461029a578063750142e6146102c557600080fd5b80634e71d92d146102645780635312ea8e1461026c5780635c8044761461027f57600080fd5b80631959a002116101815780631959a0021461020a5780632e17de7814610246578063373d61321461025b57600080fd5b80630eb968ba146101a85780630ef4b248146101e45780631576c3d8146101f7575b600080fd5b6101d16101b636600461149c565b6001600160a01b031660009081526004602052604090205490565b6040519081526020015b60405180910390f35b6101d16101f236600461149c565b610391565b6101d161020536600461149c565b610447565b61023161021836600461149c565b6003602052600090815260409020805460019091015482565b604080519283526020830191909152016101db565b6102596102543660046114c0565b6104f6565b005b6101d160085481565b6102596106e7565b61025961027a3660046114c0565b6107c3565b61025961028d3660046114c0565b61081a565b61025961099f565b6001546102ad906001600160a01b031681565b6040516001600160a01b0390911681526020016101db565b6101d160095481565b6101d16201d88081565b6101d160055481565b6000546001600160a01b03166102ad565b6101d160075481565b61025961030936600461149c565b6109b3565b610259610a40565b6102596103243660046114c0565b610b59565b6101d160065481565b6002546102ad906001600160a01b031681565b6102316103533660046114d9565b610c59565b6102596103663660046114c0565b610c95565b61025961037936600461149c565b610cda565b6101d161038c36600461149c565b610d6a565b6001600160a01b03811660009081526004602052604081205481805b8281101561043f576001600160a01b03851660009081526004602052604081208054839081106103df576103df611505565b60009182526020918290206040805180820190915260029092020180548252600101549181018290529150431180156104185750805115155b1561042c5780516104299084611531565b92505b50806104378161154a565b9150506103ad565b509392505050565b6001600160a01b03811660009081526004602052604081205481805b8281101561043f576001600160a01b038516600090815260046020526040812080548390811061049557610495611505565b6000918252602091829020604080518082019091526002909202018054825260010154918101829052915043118015906104cf5750805115155b156104e35780516104e09084611531565b92505b50806104ee8161154a565b915050610463565b336000908152600360205260409020805482111561055b5760405162461bcd60e51b815260206004820181905260248201527f5374616b696e67506f6f6c3a20494e53554646494349454e545f414d4f554e5460448201526064015b60405180910390fd5b8160085410156105ad5760405162461bcd60e51b815260206004820152601e60248201527f5374616b696e67506f6f6c3a204e4f545f454e4f5547485f5354414b454400006044820152606401610552565b6105b5610a40565b6000816001015464e8d4a5100060075484600001546105d49190611563565b6105de919061157a565b6105e8919061159c565b90506105f43382610ec8565b815461060190849061159c565b80835560075464e8d4a51000916106189190611563565b610622919061157a565b8260010181905550826008600082825461063c919061159c565b9091555050336000908152600460209081526040918290208251808401909352858352919081016106706201d88043611531565b9052815460018181018455600093845260209384902083516002909302019182559290910151910155337ff960dbf9e5d0682f7a298ed974e33a28b4464914b7a2bfac12ae419a9afeb280846106c96201d88043611531565b604080519283526020830191909152015b60405180910390a2505050565b3360009081526004602052604081205490805b828110156107715733600090815260046020526040812080548390811061072357610723611505565b906000526020600020906002020190504381600101541080156107465750805415155b1561075e5780546107579084611531565b6000825592505b50806107698161154a565b9150506106fa565b50600154610789906001600160a01b031633836110c5565b60405181815233907f47cee97cb7acd717b3c0aa1435d004cd5b3c8c57d70dbceb4e4458bbd60e39d4906020015b60405180910390a25050565b6107cb61116e565b6001546107e2906001600160a01b031633836110c5565b60405181815233907f5fafa99d0643513820be26656b45130b01e1c03062e1266bf36f88cbd3bd96959060200160405180910390a250565b3360009081526004602052604090205481106108785760405162461bcd60e51b815260206004820152601960248201527f5374616b696e67506f6f6c3a204f55545f4f465f424f554e44000000000000006044820152606401610552565b33600090815260046020526040812080548390811061089957610899611505565b90600052602060002090600202019050438160010154106108fc5760405162461bcd60e51b815260206004820152601760248201527f5374616b696e67506f6f6c3a204e4f545f554e4c4f434b0000000000000000006044820152606401610552565b805461094a5760405162461bcd60e51b815260206004820152601c60248201527f5374616b696e67506f6f6c3a20414c52454144595f434c41494d4544000000006044820152606401610552565b805460008255600154610967906001600160a01b031633836110c5565b604080518481526020810183905233917f97345b40884a0deaba8cde1b82ec59ee21d1889eadb4f23f61428e670798431291016106da565b6109a761116e565b6109b160006111c8565b565b6109bb61116e565b6001600160a01b038116610a115760405162461bcd60e51b815260206004820152601960248201527f5374616b696e67506f6f6c3a205a45524f5f41444452455353000000000000006044820152606401610552565b6002805473ffffffffffffffffffffffffffffffffffffffff19166001600160a01b0392909216919091179055565b6006544311610a4b57565b600854600003610a5b5743600655565b600060065443610a6b919061159c565b9050600060055482610a7d9190611563565b6002546040517fae169a50000000000000000000000000000000000000000000000000000000008152600481018390529192506000916001600160a01b039091169063ae169a50906024016020604051808303816000875af1158015610ae7573d6000803e3d6000fd5b505050506040513d601f19601f82011682018060405250810190610b0b91906115af565b90508060096000828254610b1f9190611531565b9091555050600854610b368264e8d4a51000611563565b610b40919061157a565b600754610b4d9190611531565b60075550504360065550565b336000908152600360205260409020610b70610a40565b805415610bb8576000816001015464e8d4a510006007548460000154610b969190611563565b610ba0919061157a565b610baa919061159c565b9050610bb63382610ec8565b505b600154610bd0906001600160a01b0316333085611225565b81816000016000828254610be49190611531565b9091555050600754815464e8d4a5100091610bfe91611563565b610c08919061157a565b81600101819055508160086000828254610c229190611531565b909155505060405182815233907febedb8b3c678666e7f36970bc8f57abf6d8fa2e828c0da91ea5b75bf68ed101a906020016107b7565b60046020528160005260406000208181548110610c7557600080fd5b600091825260209091206002909102018054600190910154909250905082565b610c9d61116e565b610ca5610a40565b6005819055604051439082907f52c807d1e2187528e4d89ed62cff6903bf27704b73db2e397fd8d9d7d954bd6590600090a350565b610ce261116e565b6001600160a01b038116610d5e5760405162461bcd60e51b815260206004820152602660248201527f4f776e61626c653a206e6577206f776e657220697320746865207a65726f206160448201527f64647265737300000000000000000000000000000000000000000000000000006064820152608401610552565b610d67816111c8565b50565b6001600160a01b0381166000908152600360209081526040808320815180830190925280548252600101549181019190915260075460065443118015610db1575060085415155b15610e9357600060065443610dc6919061159c565b9050600060055482610dd89190611563565b6002546040517f12f7086c000000000000000000000000000000000000000000000000000000008152600481018390529192506000916001600160a01b03909116906312f7086c90602401602060405180830381865afa158015610e40573d6000803e3d6000fd5b505050506040513d601f19601f82011682018060405250810190610e6491906115af565b600854909150610e798264e8d4a51000611563565b610e83919061157a565b610e8d9085611531565b93505050505b6020820151825164e8d4a5100090610eac908490611563565b610eb6919061157a565b610ec0919061159c565b949350505050565b600254604080517ff7c618c100000000000000000000000000000000000000000000000000000000815290516000926001600160a01b03169163f7c618c19160048083019260209291908290030181865afa158015610f2b573d6000803e3d6000fd5b505050506040513d601f19601f82011682018060405250810190610f4f91906115c8565b6040517f70a082310000000000000000000000000000000000000000000000000000000081523060048201526001600160a01b0391909116906370a0823190602401602060405180830381865afa158015610fae573d6000803e3d6000fd5b505050506040513d601f19601f82011682018060405250810190610fd291906115af565b90508082111561106d576110688382600260009054906101000a90046001600160a01b03166001600160a01b031663f7c618c16040518163ffffffff1660e01b8152600401602060405180830381865afa158015611034573d6000803e3d6000fd5b505050506040513d601f19601f8201168201806040525081019061105891906115c8565b6001600160a01b031691906110c5565b505050565b6110688383600260009054906101000a90046001600160a01b03166001600160a01b031663f7c618c16040518163ffffffff1660e01b8152600401602060405180830381865afa158015611034573d6000803e3d6000fd5b6040516001600160a01b0383166024820152604481018290526110689084907fa9059cbb00000000000000000000000000000000000000000000000000000000906064015b60408051601f198184030181529190526020810180517bffffffffffffffffffffffffffffffffffffffffffffffffffffffff167fffffffff000000000000000000000000000000000000000000000000000000009093169290921790915261127c565b6000546001600160a01b031633146109b15760405162461bcd60e51b815260206004820181905260248201527f4f776e61626c653a2063616c6c6572206973206e6f7420746865206f776e65726044820152606401610552565b600080546001600160a01b0383811673ffffffffffffffffffffffffffffffffffffffff19831681178455604051919092169283917f8be0079c531659141344cd1fd0a4f28419497f9722a3daafe3b4186f6b6457e09190a35050565b6040516001600160a01b03808516602483015283166044820152606481018290526112769085907f23b872dd000000000000000000000000000000000000000000000000000000009060840161110a565b50505050565b60006112d1826040518060400160405280602081526020017f5361666545524332303a206c6f772d6c6576656c2063616c6c206661696c6564815250856001600160a01b03166113649092919063ffffffff16565b90508051600014806112f25750808060200190518101906112f291906115e5565b6110685760405162461bcd60e51b815260206004820152602a60248201527f5361666545524332303a204552433230206f7065726174696f6e20646964206e60448201527f6f742073756363656564000000000000000000000000000000000000000000006064820152608401610552565b6060610ec0848460008585600080866001600160a01b0316858760405161138b919061162b565b60006040518083038185875af1925050503d80600081146113c8576040519150601f19603f3d011682016040523d82523d6000602084013e6113cd565b606091505b50915091506113de878383876113e9565b979650505050505050565b60608315611458578251600003611451576001600160a01b0385163b6114515760405162461bcd60e51b815260206004820152601d60248201527f416464726573733a2063616c6c20746f206e6f6e2d636f6e74726163740000006044820152606401610552565b5081610ec0565b610ec0838381511561146d5781518083602001fd5b8060405162461bcd60e51b81526004016105529190611647565b6001600160a01b0381168114610d6757600080fd5b6000602082840312156114ae57600080fd5b81356114b981611487565b9392505050565b6000602082840312156114d257600080fd5b5035919050565b600080604083850312156114ec57600080fd5b82356114f781611487565b946020939093013593505050565b634e487b7160e01b600052603260045260246000fd5b634e487b7160e01b600052601160045260246000fd5b808201808211156115445761154461151b565b92915050565b60006001820161155c5761155c61151b565b5060010190565b80820281158282048414176115445761154461151b565b60008261159757634e487b7160e01b600052601260045260246000fd5b500490565b818103818111156115445761154461151b565b6000602082840312156115c157600080fd5b5051919050565b6000602082840312156115da57600080fd5b81516114b981611487565b6000602082840312156115f757600080fd5b815180151581146114b957600080fd5b60005b8381101561162257818101518382015260200161160a565b50506000910152565b6000825161163d818460208701611607565b9190910192915050565b6020815260008251806020840152611666816040850160208701611607565b601f01601f1916919091016040019291505056fea26469706673582212203e8798feffb786ae6aa9d5c987e7842e1a5c4c8fb7fb19ec8405d502e3037a5564736f6c63430008110033",
  "linkReferences": {},
  "deployedLinkReferences": {}
}